S00D0000494F5F57412E7372656388
S113000071C000008EC000008CC00000A3C30000BB
S113001053C2000020C3000084C0000082C000005E
S113002080C000007EC000007CC000007AC00000D8
S113003078C0000076C0000074C0000072C00000E8
S113004070C0000083C100006CC000006AC00000E2
S113005068C0000066C0000064C0000062C0000008
S113006060C000005EC000005CC000005AC0000018
S113007058C0000092C1000054C0000052C00000EB
S113008050C000004EC000004CC000004AC0000038
S113009048C0000046C0000044C0000042C0000048
S11300A040C000003EC000003CC000003AC0000058
S11300B038C0000036C0000034C0000032C0000068
S11300C030C000002EC000002CC000002AC0000078
S11300D028C0000026C0000024C0000022C0000088
S11300E020C0000011241FBECFEFD1E2DEBFCDBF80
S11300F000E00CBF13E0A0E0B2E0E6ECF0E100E0C9
S11301000BBF02C007900D92AA31B107D9F72AE0BC
S1130110AAE1B3E001C01D92A73FB207E1F770D195
S1130120D0C76ECF8CE0C2D491D480E07DC4089552
S113013080911C03823009F439C060E080E069D406
S11301408091020290910302A2D461E080E061D424
S113015080910202909103020A9699D461E089E0A9
S113016058D48091020290910302449690D460E0A6
S113017089E04FD480910202909103024E9687D475
S113018061E083E046D48091020290910302C2961A
S11301907ED461E08CE03DD4809102029091030210
S11301A0889675D483ED92E072C4089560E080E08F
S11301B030D4809102029091030269D481ED92E0DF
S11301C066D461E080E025D484EC92E060C40895B4
S11301D014B815B88FEF87B918B8789408951092A9
S11301E080008CE080938100109282008AE78093E3
S11301F0890082E180938800109285001092840027
S113020082E080936F0008958091C302813669F083
S113021018F4803631F00895823659F0833669F047
S11302200895419A429A439A0895429A419843986C
S11302300895439A429841980895419A4298439860
S1130240089580911C03813089F018F08230E9F020
S1130250089580910102813011F4409A04C098B14C
S113026081E0892788B94498CFCF0895809101020D
S1130270813011F4449A04C098B180E1892788B987
S113028040984198429843980895449840984198DA
S11302904298439808958091790090911C03992382
S11302A021F0913009F44AC00895823368F489E05A
S11302B08093C20286E0E6EDF2E0A6EBB2E00190A4
S11302C00D928A95E1F70895843668F483E180936A
S11302D0C20286E0ECEDF2E0A6EBB2E001900D92F2
S11302E08A95E1F70895863968F486E28093C2021C
S11302F086E0E2EEF2E0A6EBB2E001900D928A9580
S1130300E1F70895883C68F48CE48093C20286E0A7
S1130310E8EEF2E0A6EBB2E001900D928A95E1F7E7
S1130320089588E98093C20286E0EEEEF2E0A6EB3F
S1130330B2E001900D928A95E1F7089580938102CD
S11303404AE06CE672E090E089C608951F920F922D
S11303500FB60F9211240BB60F922F933F934F9326
S11303605F936F937F938F939F93AF93BF93EF9319
S1130370FF9367DFFF91EF91BF91AF919F918F91B1
S11303807F916F915F914F913F912F910F900BBE91
S11303900F900FBE0F901F9018951F920F920FB6DB
S11303A00F9211240BB60F922F933F934F935F93A9
S11303B06F937F938F939F93AF93BF93EF93FF9329
S11303C08091790034D6FF91EF91BF91AF919F91C5
S11303D08F917F916F915F914F913F912F910F90EA
S11303E00BBE0F900FBE0F901F90189580EA80935C
S11303F0690082E080936A001DBA8FEF8CBB089578
S1130400E7DE60E874E88EE190E0B4D5E8DE8ADEE9
S1130410EDDF8CE18DBB00D28CE4DED1CBD18091B9
S11304201A03823061F018F4813031F011C0833046
S113043049F0843051F00CC010921A03F0CF10929E
S11304401A03EDCF10921A03EACF10921A03E7CFE2
S11304508091010281111FDF6BDE10921A03DFCF3E
S113046080911C03813099F018F08230D9F00895FE
S113047081E080931C0380E680937C008CE4ACD103
S113048084E492E09093030280930202089582E050
S113049080931C0384E092E0909303028093020211
S11304A092C1089510921C0385D184E892E0909340
S11304B003028093020208951F920F920FB60F92C7
S11304C011240BB60F922F933F934F935F936F9327
S11304D07F938F939F93AF93BF93EF93FF9382E0A8
S11304E080931A03809101028111BADFFF91EF9189
S11304F0BF91AF919F918F917F916F915F914F9138
S11305003F912F910F900BBE0F900FBE0F901F9035
S11305101895CF9380911C03813009F03EC0C0919F
S11305201B03C13081F028F0C230C1F0C33009F19F
S11305302BC0109280024AE050E064EF72E086E73C
S113054092E07DD57FC085E0809380024AE050E050
S11305506AEF72E086E792E072D574C088E2809315
S113056080024AE050E060E073E086E792E067D5FD
S113057069C081E4809380024AE050E066E073E061
S113058086E792E05CD506C0CF5FC0931B03C430FE
S113059008F45FC010921B035CC081115AC08091A3
S11305A000028130B1F028F0823019F1833089F1F2
S11305B040C090E69093C30240E350E260E270E0F2
S11305C04093AC025093AD026093AE027093AF02BD
S11305D03DC091E69093C30241E350E260E270E0D3
S11305E04093AC025093AD026093AE027093AF029D
S11305F02DC092E69093C30242E350E260E270E0C1
S11306004093AC025093AD026093AE027093AF027C
S11306101DC083E68093C30283E390E2A0E2B0E0CE
S11306208093AC029093AD02A093AE02B093AF025C
S113063005C08F5F80930002843058F081E080937E
S1130640000207C0CF5FC0931B0303C08F5F80937A
S11306500002CF9108951F920F920FB60F921124AA
S11306600BB60F922F933F934F935F936F937F93A8
S11306708F939F93AF93BF93EF93FF9383E0809304
S11306801A0380911C03823011F4EADE04C08091C5
S1130690010281113EDFFF91EF91BF91AF919F91D4
S11306A08F917F916F915F914F913F912F910F9017
S11306B00BBE0F900FBE0F901F90189580910102F2
S11306C0882319F08130D1F0089580E680937C006E
S11306D087E0ECE0F3E0A2EAB2E001900D928A95A3
S11306E0E1F787E0ECE0F3E0A2E6B2E001900D92DE
S11306F08A95E1F781E080930102089586E0E3E1C1
S1130700F3E0A2EAB2E001900D928A95E1F786E067
S1130710E3E1F3E0A2E6B2E001900D928A95E1F7FD
S113072080911C03811108C08091C30280937C00D6
S11307308091C20251D00BC0843049F440918002B0
S113074050E06091810270E080E090E06BD2109202
S1130750010208951F920F920FB60F9211240BB647
S11307600F922F933F934F935F936F937F938F9346
S11307709F93AF93BF93EF93FF9381E080931A030A
S113078080911C03823011F46BDE01C097DFFF916E
S1130790EF91BF91AF919F918F917F916F915F91F5
S11307A04F913F912F910F900BBE0F900FBE0F9062
S11307B01F901895EAE7F0E080818068808380814B
S11307C0806480830895EAE7F0E080818F778083F6
S11307D080818F7B80830895863291F028F489305C
S11307E0B9F0833189F008958C3431F0883999F463
S11307F08BEA80937A0008958CEA80937A000895B6
S11308008DEA80937A0008958EEA80937A000895A1
S11308108FEA80937A00089580E680937C008CEAC6
S113082080937A00EBE7F0E08081807F80838FE023
S113083080937E008FEF80937D000895CF9388236B
S113084031F080911D03816080931D0305C0809168
S11308501D038E7F80931D0380911D03826080930E
S11308601D0360911D0387E08DD162E087E0D4D140
S113087000C064E087E06FD1C82F62E087E0CFD189
S113088000C062E087E0C8D100C064E087E063D1C3
S1130890C295C07F8F70C82B62E087E0C0D18C2FD7
S11308A0CF91089580E0CADF8823E4F388E090E0E4
S11308B00197F1F780E0C2CF089562E087E0ACD100
S11308C000C062E087E0ABC10895CF93C82F6623D0
S11308D031F080911D03816080931D0305C08091D8
S11308E01D038E7F80931D0380911D038D7F809354
S11308F01D0360911D0387E045D180911D038F770F
S113090080931D0380911D038F7B80931D03809131
S11309101D038F7D80931D0380911D038F7E809323
S11309201D03CC232CF480911D03806880931D0348
S1130930C6FF05C080911D03806480931D03C5FF1D
S113094005C080911D03806280931D03C4FF05C010
S113095080911D03806180931D0360911D0387E0D6
S113096011D1ABDF80911D038F7780931D0380919C
S11309701D038F7B80931D0380911D038F7D8093C6
S11309801D0380911D038F7E80931D03C3FF05C04B
S113099080911D03806880931D03C2FF05C0809170
S11309A01D03806480931D03C1FF05C080911D0356
S11309B0806280931D03C0FF05C080911D03806188
S11309C080931D0360911D0387E0DCD076DF809166
S11309D01D03806180931D0380911D0380628093B9
S11309E01D0380911D03806480931D0380911D036A
S11309F0806880931D0360911D0387E0C3D0CF916D
S1130A000895CF93C82F4EDF60E08C2F5EDFCF9127
S1130A100895611103C08058F4CF08958054F1CF34
S1130A20089581E0EECF0895882331F080911D036D
S1130A30877F80931D0305C080911D038860809388
S1130A401D0360911D0387E09DC0089582E0D9CF06
S1130A500895CF93C82F26DFCA3041F4803410F0B4
S1130A6080E001C080E48058CCDF0FC0803121F4E5
S1130A7060E080EC2ADF05C0803519F460E080E88E
S1130A8024DF10DF61E08C2F20DFCF910895CF9316
S1130A90DF93EC012196FC018081882321F0D9DFCA
S1130AA089918111FCCFDF91CF9108951F93CF934A
S1130AB0DF93182F40D010921D0360911D0387E02F
S1130AC061D080E09AEF0197F1F790911D03906255
S1130AD090931D0390911D03906190931D03609169
S1130AE01D0387E04FD0E9DEE0E0FEE43197F1F743
S1130AF0E4DEC0E0D1E0FE013197F1F7DEDEFE0175
S1130B003197F1F790911D039F7E90931D0360919F
S1130B101D0387E037D0D1DE2197F1F788E271DF3A
S1130B2088E06FDF7EDF86E06CDF812F6ADFDF9194
S1130B30CF911F910895D6D185E38A95F1F70000EE
S1130B4080E090E0FC01E15EFC4F10820196883069
S1130B509105C1F70895883088F4683088F4E82F47
S1130B60F0E0E15EFC4F8081082E000C990B02C07E
S1130B70959587956A95E2F7817008958FEF0895AA
S1130B808FEF0895CF93883080F4C62F982FE82FE5
S1130B90F0E0E15EFC4F608380E2890F880FA8D10A
S1130BA08C2FD6D1CCD180E001C08FEFCF910895A6
S1130BB0CF93DF93883050F5683050F5282F30E01C
S1130BC0F901E15EFC4F9081442349F0C1E0D0E09B
S1130BD002C0CC0FDD1F6A95E2F7C92B09C0C1E042
S1130BE0D0E002C0CC0FDD1F6A95E2F7C095C9239F
S1130BF0982FF901E15EFC4FC08380E2890F880FD2
S1130C0077D18C2FA5D19BD180E003C08FEF01C099
S1130C108FEFDF91CF91089541E0CACF089540E06E
S1130C20C7CF089516BC1092B2008130910509F423
S1130C3059C01CF4892B49F008958230910509F4B8
S1130C409EC0039709F4F3C00895279A67BD84B53D
S1130C50806884BD84B58F7B84BD84B5826084BD87
S1130C6084B5816084BD85B5877F85BD85B58F7763
S1130C7085BD85B58F7B85BD4333510554F085B55E
S1130C808B7F85BD85B58D7F85BD85B5816085BD2F
S1130C9008954830510554F085B58B7F85BD85B5E1
S1130CA0826085BD85B58E7F85BD0895CA01029792
S1130CB0059750F485B58B7F85BD85B5826085BD6C
S1130CC085B5816085BD0895141615060CF409C117
S1130CD085B5846085BD85B58D7F85BD85B58E7FE1
S1130CE085BD08959D9A68BD84B5806284BD84B530
S1130CF08F7E84BD84B5826084BD84B5816084BDEB
S1130D0085B5877F85BD85B58F7785BD85B58F7B97
S1130D1085BD4333510554F085B58B7F85BD85B5BD
S1130D208D7F85BD85B5816085BD089548305105A9
S1130D3054F085B58B7F85BD85B5826085BD85B54D
S1130D408E7F85BD0895CA010297059750F485B535
S1130D508B7F85BD85B5826085BD85B5816085BD88
S1130D600895141615060CF4BCC085B5846085BDC1
S1130D7085B58D7F85BD85B58E7F85BD0895249A03
S1130D806093B300E0EBF0E0808180688083808131
S1130D908F7B808380818260808380818160808377
S1130DA0E1EBF0E08081877F808380818F7780838F
S1130DB080818F7B80834333510554F080818B7F06
S1130DC0808380818D7F808380818160808308958A
S1130DD04830510564F0E1EBF0E080818B7F808343
S1130DE080818260808380818E7F80830895CA01A0
S1130DF00297059760F4E1EBF0E080818B7F8083BC
S1130E00808182608083808181608083089514164C
S1130E1015060CF466C0E1EBF0E080818460808309
S1130E2080818D7F808380818E7F80830895E1E03F
S1130E30F1E08081806480836093B400E0EBF0E0B3
S1130E4080818062808380818F7E808380818260C4
S1130E508083808181608083E1EBF0E08081877F03
S1130E60808380818F77808380818F7B80834333ED
S1130E70510554F080818B7F808380818D7F8083B6
S1130E8080818160808308954830510564F0E1EBEE
S1130E90F0E080818B7F8083808182608083808189
S1130EA08E7F80830895CA010297059760F4E1EB71
S1130EB0F0E080818B7F8083808182608083808169
S1130EC0816080830895141615065CF0E1EBF0E070
S1130ED080818460808380818D7F808380818E7F08
S1130EE0808308951092B90082E18093B800089538
S1130EF094EA9093BC00ECEBF0E090819923ECF73A
S1130F009091B900987F983011F09031A1F48093BA
S1130F10BB0084E88093BC00ECEBF0E08081882384
S1130F20ECF79091B900987F983139F081E09034D2
S1130F3029F480E0089581E0089580E0089584E92B
S1130F408093BC00ECEBF0E0808184FDFDCF08953C
S1130F508093BB0084E88093BC00ECEBF0E08081DC
S1130F608823ECF79091B900987F81E0983209F4D6
S1130F7080E0089522E02093C00028E92093C10076
S1130F8027E02093C2001092C500603820E7720762
S1130F9081059105C9F194F4603428E37207810551
S1130FA0910551F161152BE472078105910541F119
S1130FB06038754281059105C9F51AC0611521EEA5
S1130FC072078105910541F134F461157649810573
S1130FD09105F1F00895603422E472072FE082074E
S1130FE09105F1F0603874488E419105E9F0089557
S1130FF08FEC8093C40008958AE88093C400089518
S113100087E68093C400089584E48093C40008951F
S113101083E38093C400089582E28093C40008951A
S113102081E08093C40008951092C4000895E0EC18
S1131030F0E0908195FFFDCF8093C6000895FB01F9
S1131040DC014150504048F001900D920020C9F756
S113105001C01D9241505040E0F70895BB274A302B
S113106031F4992322F4BDE2909581959F4F01C0FC
S1131070BB27FB015527AA27880F991FAA1FA4176E
S113108010F0A41B83955051B9F7A05DAA3308F062
S1131090A95DA193009779F7B111B1931192CB0196
S11310A000C0DC01FC01672F71917723E1F73297CF
S11310B004C07C916D9370836291AE17BF07C8F32F
S10910C00895F894FFCF2F
S11310C602018402534C4545505F4D4F4445000090
S11310D60000000000000000000000000000000006
S11310E600000000000000000000000000000000F6
S11310F600000000000000000000000000000000E6
S11311060000000050574D5F4D4F44452000464EA9
S11311163A0000000000000050573A0000000000AA
S1131126000073746F70000000000000323020006D
S113113600000000000036322E354B00000000008F
S1131146410000004144435F4D4F44452000535243
S11311563A0000000000000043483A000000000086
S1131166000073746F70000000000000312020003E
S113117600000000000037364B202000000000006D
S113118600004C6120202020202020202020202028
S113119620202020200020394B20200031394B20EC
S11311A6200033384B20200037364B2020003135C1
S11311B6324B2000323435487A00314B487A2000CD
S11311C6372E384B680036322E354B0073746F70E9
S10D11D6202000737461727400009D
S9030000FC
