S00D0000494F5F57412E7372656388
S113000071C000008EC000008CC000008AC00000D7
S113001088C0000086C0000084C0000082C00000C8
S113002080C000007EC000007CC000007AC00000D8
S113003078C0000076C0000074C0000072C00000E8
S113004070C000006EC000006CC000006AC00000F8
S113005068C0000066C0000064C0000062C0000008
S113006060C000005EC000005CC000005AC0000018
S113007058C00000D2C3000054C0000052C00000A9
S113008050C000004EC000004CC000004AC0000038
S113009048C0000046C0000044C0000042C0000048
S11300A040C000003EC000003CC000003AC0000058
S11300B038C0000036C0000034C000006AC300002D
S11300C030C000002EC000002CC000002AC0000078
S11300D028C0000026C0000024C0000022C0000088
S11300E020C0000011241FBECFEFD1E2DEBFCDBF80
S11300F000E00CBF12E0A0E0B2E0EAECF9E000E0BE
S11301000BBF02C007900D92A432B107D9F722E0C9
S1130110A4E2B2E001C01D92AD33B207E1F72AD3E5
S113012052C46ECF86329105A9F034F4893091051A
S1130130C9F0439799F008958C34910539F08839C2
S1130140910599F48BEA80937A0008958CEA809360
S11301507A0008958DEA80937A0008958EEA809358
S11301607A0008958FEA80937A00089580E6809358
S11301707C008CEA80937A00EBE7F0E08081807F5A
S1130180808384E080937E008FEF80937D000895C8
S1130190EAE7F0E0808180688083808180648083E6
S11301A00895CF93882331F0809124028160809355
S11301B0240205C0809124028E7F809324028091C2
S11301C024028260809324026091240287E08DD10E
S11301D062E087E0D4D100C064E087E06FD1C82F2B
S11301E062E087E0CFD100C062E087E0C8D100C000
S11301F064E087E063D1C295C07F8F70C82B62E052
S113020087E0C0D18C2FCF91089580E0CADF882386
S1130210E4F388E090E00197F1F780E0C2CF08951D
S113022062E087E0ACD100C062E087E0ABC1089532
S1130230CF93C82F662331F080912402816080938C
S1130240240205C0809124028E7F80932402809131
S113025024028D7F809324026091240287E045D19B
S1130260809124028F7780932402809124028F7BD3
S113027080932402809124028F7D809324028091B4
S113028024028F7E80932402CC232CF480912402B8
S1130290806880932402C6FF05C080912402806494
S11302A080932402C5FF05C080912402806280935C
S11302B02402C4FF05C0809124028061809324023B
S11302C06091240287E011D1ABDF809124028F7703
S11302D080932402809124028F7B80932402809156
S11302E024028F7D80932402809124028F7E809348
S11302F02402C3FF05C080912402806880932402F5
S1130300C2FF05C080912402806480932402C1FF4F
S113031005C080912402806280932402C0FF05C03E
S1130320809124028061809324026091240287E0FA
S1130330DCD076DF80912402806180932402809156
S1130340240280628093240280912402806480933A
S11303502402809124028068809324026091240204
S113036087E0C3D0CF910895CF93C82F4EDF60E0CC
S11303708C2F5EDFCF910895611103C08058F4CFB4
S113038008958054F1CF089581E0EECF0895882335
S113039031F080912402877F8093240205C08091EC
S11303A024028860809324026091240287E09DC027
S11303B0089582E0D9CF0895CF93C82F26DFCA309D
S11303C041F4803410F080E001C080E48058CCDF38
S11303D00FC0803121F460E080EC2ADF05C0803555
S11303E019F460E080E824DF10DF61E08C2F20DF67
S11303F0CF910895CF93DF93EC012196FC01808186
S1130400882321F0D9DF89918111FCCFDF91CF912D
S113041008951F93CF93DF93182F40D01092240296
S11304206091240287E061D080E09AEF0197F1F7B0
S113043090912402906290932402909124029061FE
S1130440909324026091240287E04FD0E9DEE0E03B
S1130450FEE43197F1F7E4DEC0E0D1E0FE0131972C
S1130460F1F7DEDEFE013197F1F7909124029F7ED1
S1130470909324026091240287E037D0D1DE219743
S1130480F1F788E271DF88E06FDF7EDF86E06CDF02
S1130490812F6ADFDF91CF911F91089576D085E394
S11304A08A95F1F7000080E090E0FC01E65DFD4FE5
S11304B01082019688309105C1F70895883088F438
S11304C0683088F4E82FF0E0E65DFD4F8081082E67
S11304D0000C990B02C0959587956A95E2F7817097
S11304E008958FEF08958FEF0895CF93883080F4A7
S11304F0C62F982FE82FF0E0E65DFD4F608380E281
S1130500890F880F48D08C2F76D06CD080E001C042
S11305108FEFCF910895CF93DF93883050F56830F3
S113052050F5282F30E0F901E65DFD4F908144231A
S113053049F0C1E0D0E002C0CC0FDD1F6A95E2F7BC
S1130540C92B09C0C1E0D0E002C0CC0FDD1F6A9501
S1130550E2F7C095C923982FF901E65DFD4FC083EA
S113056080E2890F880F17D08C2F45D03BD080E0D4
S113057003C08FEF01C08FEFDF91CF91089541E069
S1130580CACF089540E0C7CF08951092B90082E120
S11305908093B800089594EA9093BC00ECEBF0E0EB
S11305A090819923ECF79091B900987F983011F0DD
S11305B09031A1F48093BB0084E88093BC00ECEB01
S11305C0F0E080818823ECF79091B900987F98310E
S11305D039F081E0903429F480E0089581E00895B1
S11305E080E0089584E98093BC00ECEBF0E0808126
S11305F084FDFDCF08958093BB0084E88093BC0004
S1130600ECEBF0E080818823ECF79091B900987FBF
S113061081E0983209F480E008958CE0FADEC9DEC6
S113062083E092E0E7DE80E0B2DE61E080E0A4DE19
S113063083E192E0DFDE61E085E09EDE87E192E027
S1130640D9DE61E089E098DE89E192E0D3CE0895B5
S1130650189B10C080912702882399F0809128026A
S11306609091290201969093290280932802109276
S1130670270207C080912702811103C081E0809383
S11306802702809128029091290281709078992301
S113069024F401978E6F9F6F019680FD409A80FF2E
S11306A0409880FF0FC080910202882309F445C05E
S11306B06FDD81E08093260281E6809332021092FE
S11306C00202089580910202811132C081E0809378
S11306D0260290E6909332028093020229C089E0B8
S11306E090E090930102809300020895843638F4D8
S11306F083E190E09093010280930002089586398B
S113070038F486E290E09093010280930002089509
S1130710883C38F48CE490E09093010280930002CA
S1130720089588E990E0909301028093000208956F
S1130730809125028233D0F6D2CF089514B815B82B
S11307408FEF87B918B878940895109220018DE03E
S113075080932101109222018AE78093290181E08C
S113076080932801109225011092240182E0809345
S113077073000895E3DF51DF60E472E48FE090E0FA
S113078092D0F4DC88E990E0CDDCDFDF01DD60DFCE
S1130790FECF1F920F920FB60F9211240BB60F9239
S11307A02F933F934F935F936F937F938F939F9375
S11307B0AF93BF93EF93FF9380917C008036A1F4B5
S11307C061E083E0D9DD8FE192E014DE61E083E053
S11307D0D3DD4AE063E372E080910002909101026C
S11307E0BFD083E392E006DE61E08EE0C5DD82E205
S11307F092E000DEFF91EF91BF91AF919F918F91B5
S11308007F916F915F914F913F912F910F900BBE0C
S11308100F900FBE0F901F9018951F920F920FB656
S11308200F9211240BB60F922F933F934F935F9324
S11308306F937F938F939F93AF93BF93EF93FF93A4
S113084080917C0090912602992331F0909132029C
S113085090937C0010922602803629F480917900CE
S11308608093250205C0813619F48091790013D054
S1130870FF91EF91BF91AF919F918F917F916F9174
S11308805F914F913F912F910F900BBE0F900FBE30
S11308900F901F901895E0ECF0E0908195FFFDCF4C
S11308A08093C600089522E02093C00028E9209395
S11308B0C10027E02093C2001092C500603820E7F1
S11308C0720781059105C9F194F4603428E3720735
S11308D08105910551F161152BE47207810591059C
S11308E041F16038754281059105C9F51AC0611559
S11308F021EE72078105910541F134F461157649C1
S113090081059105F1F00895603422E472072FE027
S113091082079105F1F0603874488E419105E9F041
S113092008958FEC8093C40008958AE88093C400EE
S1130930089587E68093C400089584E48093C400F6
S1130940089583E38093C400089582E28093C400F1
S1130950089581E08093C40008951092C40008951E
S1130960BB274A3031F4992322F4BDE29095819556
S11309709F4F01C0BB27FB015527AA27880F991F4A
S1130980AA1FA41710F0A41B83955051B9F7A05DBA
S1130990AA3308F0A95DA193009779F7B111B19337
S11309A01192CB0100C0DC01FC01672F7191772308
S11309B0E1F7329704C07C916D9370836291AE1716
S10D09C0BF07C8F30895F894FFCFB1
S11309CA0900012A2A57656C636F6D65204F5343EA
S11309DA2A2A0053523A006B004348414E3A0020F7
S10709EA20003100B4
S9030000FC
