S00D0000494F5F57412E7372656388
S113000071C000008EC000008CC000008AC00000D7
S113001088C0000086C0000084C0000082C00000C8
S113002080C000007EC000007CC000007AC00000D8
S113003078C0000076C0000074C0000072C00000E8
S113004070C0000009C300006CC000006AC000005A
S113005068C0000066C0000064C0000062C0000008
S113006060C000005EC000005CC000005AC0000018
S113007058C0000056C0000054C0000052C0000028
S113008050C000004EC000004CC000004AC0000038
S113009048C0000046C0000044C0000042C0000048
S11300A040C000003EC000003CC000003AC0000058
S11300B038C0000036C0000034C0000032C0000068
S11300C030C000002EC000002CC000002AC0000078
S11300D028C0000026C0000024C0000022C0000088
S11300E020C0000011241FBECFEFD1E2DEBFCDBF80
S11300F000E00CBF12E0A0E0B2E0ECE8F7E000E0C2
S11301000BBF02C007900D92AA31B107D9F722E0C4
S1130110AAE1B2E001C01D92A632B207E1F78ED285
S113012033C36ECF82E680937C0088EA80937A00A2
S1130130EBE7F0E08081807F808384E080937E0021
S11301408FEF80937D000895CF93882331F08091C1
S11301501A02816080931A0205C080911A028E7F70
S113016080931A0280911A02826080931A0260912D
S11301701A0287E08DD162E087E0D4D100C064E048
S113018087E06FD1C82F62E087E0CFD100C062E082
S113019087E0C8D100C064E087E063D1C295C07F26
S11301A08F70C82B62E087E0C0D18C2FCF91089567
S11301B080E0CADF8823E4F388E090E00197F1F758
S11301C080E0C2CF089562E087E0ACD100C062E075
S11301D087E0ABC10895CF93C82F662331F0809197
S11301E01A02816080931A0205C080911A028E7FE0
S11301F080931A0280911A028D7F80931A02609173
S11302001A0287E045D180911A028F7780931A02EF
S113021080911A028F7B80931A0280911A028F7D3B
S113022080931A0280911A028F7E80931A02CC2343
S11302302CF480911A02806880931A02C6FF05C0CC
S113024080911A02806480931A02C5FF05C08091D0
S11302501A02806280931A02C4FF05C080911A02B8
S1130260806180931A0260911A0287E011D1ABDF9A
S113027080911A028F7780931A0280911A028F7BE1
S113028080931A0280911A028F7D80931A028091C2
S11302901A028F7E80931A02C3FF05C080911A024E
S11302A0806880931A02C2FF05C080911A0280649C
S11302B080931A02C1FF05C080911A028062809364
S11302C01A02C0FF05C080911A02806180931A024D
S11302D060911A0287E0DCD076DF80911A02806197
S11302E080931A0280911A02806280931A0280918C
S11302F01A02806480931A0280911A0280688093A3
S11303001A0260911A0287E0C3D0CF910895CF9367
S1130310C82F4EDF60E08C2F5EDFCF91089561110E
S113032003C08058F4CF08958054F1CF089581E03C
S1130330EECF0895882331F080911A02877F80934D
S11303401A0205C080911A02886080931A02609193
S11303501A0287E09DC0089582E0D9CF0895CF9313
S1130360C82F26DFCA3041F4803410F080E001C089
S113037080E48058CCDF0FC0803121F460E080EC51
S11303802ADF05C0803519F460E080E824DF10DF3F
S113039061E08C2F20DFCF910895CF93DF93EC01A0
S11303A02196FC018081882321F0D9DF8991811174
S11303B0FCCFDF91CF9108951F93CF93DF93182F34
S11303C040D010921A0260911A0287E061D080E056
S11303D09AEF0197F1F790911A02906290931A02A2
S11303E090911A02906190931A0260911A0287E028
S11303F04FD0E9DEE0E0FEE43197F1F7E4DEC0E05F
S1130400D1E0FE013197F1F7DEDEFE013197F1F71D
S113041090911A029F7E90931A0260911A0287E0CB
S113042037D0D1DE2197F1F788E271DF88E06FDF02
S11304307EDF86E06CDF812F6ADFDF91CF911F9131
S1130440089576D085E38A95F1F7000080E090E086
S1130450FC01E25EFD4F1082019688309105C1F7E0
S11304600895883088F4683088F4E82FF0E0E25E7C
S1130470FD4F8081082E000C990B02C0959587953D
S11304806A95E2F7817008958FEF08958FEF0895CC
S1130490CF93883080F4C62F982FE82FF0E0E25EE7
S11304A0FD4F608380E2890F880F48D08C2F76D06F
S11304B06CD080E001C08FEFCF910895CF93DF938C
S11304C0883050F5683050F5282F30E0F901E25EAD
S11304D0FD4F9081442349F0C1E0D0E002C0CC0F2D
S11304E0DD1F6A95E2F7C92B09C0C1E0D0E002C064
S11304F0CC0FDD1F6A95E2F7C095C923982FF90147
S1130500E25EFD4FC08380E2890F880F17D08C2FE5
S113051045D03BD080E003C08FEF01C08FEFDF9167
S1130520CF91089541E0CACF089540E0C7CF089520
S11305301092B90082E18093B800089594EA9093F0
S1130540BC00ECEBF0E090819923ECF79091B900BA
S1130550987F983011F09031A1F48093BB0084E827
S11305608093BC00ECEBF0E080818823ECF7909161
S1130570B900987F983139F081E0903429F480E013
S1130580089581E0089580E0089584E98093BC0093
S1130590ECEBF0E0808184FDFDCF08958093BB00F7
S11305A084E88093BC00ECEBF0E080818823ECF7D6
S11305B09091B900987F81E0983209F480E0089521
S11305C0189B19C080911B028823E1F080911C02C2
S11305D090911D02019690931D0280931C0210922B
S11305E01B0281709078992324F401978E6F9F6F7A
S11305F0019688B9089580911B02811103C081E09E
S113060080931B02089514B815B88FEF87B918B8F2
S113061078940895109280008DE080938100109268
S11306208200109289008AE78093880010928500E6
S11306301092840082E080936F000895E4DF8CE0E0
S1130640BBDE8ADE8AE092E0A8DE80E073DE5AD068
S113065069DDE0DFB5DFFECF1F920F920FB60F9278
S113066011240BB60F922F933F934F935F936F9385
S11306707F938F939F93AF93BF93EF93FF93CF9306
S1130680DF93CDB7DEB72A97DEBFCDBF80E052DE61
S113069085E0E0E0F2E0DE01119601900D928A958A
S11306A0E1F7FE01369685E0DF011D928A95E9F7B0
S11306B04AE0BE016F5F7F4F80911C0290911D0242
S11306C030D061E080E02BDECE01019666DE2A9612
S11306D00FB6F894DEBF0FBECDBFDF91CF91FF916F
S11306E0EF91BF91AF919F918F917F916F915F91A6
S11306F04F913F912F910F900BBE0F900FBE0F9013
S11307001F90189582E08093C00088E98093C1000F
S113071087E08093C2001092C5008CE08093C400EF
S11307200895BB274A3031F4992322F4BDE2909511
S113073081959F4F01C0BB27FB015527AA27880F2E
S1130740991FAA1FA41710F0A41B83955051B9F741
S1130750A05DAA3308F0A95DA193009779F7B111C0
S1130760B1931192CB0100C0DC01FC01672F7191A0
S11307707723E1F7329704C07C916D937083629183
S10F0780AE17BF07C8F30895F894FFCF2C
S113078C202020200000000000002A2A57656C63FA
S10D079C6F6D65204F53432A2A00B5
S9030000FC
