S00D0000494F5F57412E7372656388
S113000071C000008EC000008CC000008AC00000D7
S113001088C0000086C0000084C0000082C00000C8
S113002080C000007EC000007CC000007AC00000D8
S113003078C0000076C0000074C0000072C00000E8
S113004070C000007CC300006CC000006AC00000E7
S113005068C0000066C0000064C0000062C0000008
S113006060C000005EC000005CC000005AC0000018
S113007058C00000B1C3000054C0000052C00000CA
S113008050C000004EC000004CC000004AC0000038
S113009048C0000046C0000044C0000042C0000048
S11300A040C000003EC000003CC000003AC0000058
S11300B038C0000036C0000034C0000032C0000068
S11300C030C000002EC000002CC000002AC0000078
S11300D028C0000026C0000024C0000022C0000088
S11300E020C0000011241FBECFEFD1E2DEBFCDBF80
S11300F000E00CBF12E0A0E0B2E0E4EDF8E000E0C4
S11301000BBF02C007900D92A632B107D9F722E0C7
S1130110A6E2B2E001C01D92AD33B207E1F707D306
S1130120D7C36ECF80E680937C0088EA80937A0000
S1130130EBE7F0E08081807F808384E080937E0021
S11301408FEF80937D000895EAE7F0E08081806876
S113015080838081806480830895CF93882331F0E5
S11301608091260281608093260205C08091260238
S11301708E7F8093260280912602826080932602DD
S11301806091260287E08DD162E087E0D4D100C07F
S113019064E087E06FD1C82F62E087E0CFD100C070
S11301A062E087E0C8D100C064E087E063D1C29513
S11301B0C07F8F70C82B62E087E0C0D18C2FCF91B5
S11301C0089580E0CADF8823E4F388E090E0019793
S11301D0F1F780E0C2CF089562E087E0ACD100C0BF
S11301E062E087E0ABC10895CF93C82F662331F056
S11301F08091260281608093260205C080912602A8
S11302008E7F80932602809126028D7F8093260222
S11302106091260287E045D1809126028F778093F2
S11302202602809126028F7B8093260280912602EB
S11302308F7D80932602809126028F7E80932602F2
S1130240CC232CF480912602806880932602C6FF7A
S113025005C080912602806480932602C5FF05C0F4
S113026080912602806280932602C4FF05C080919B
S113027026028061809326026091260287E011D1D4
S1130280ABDF809126028F7780932602809126022D
S11302908F7B80932602809126028F7D8093260295
S11302A0809126028F7E80932602C3FF05C0809131
S11302B02602806880932602C2FF05C08091260230
S11302C0806480932602C1FF05C08091260280626B
S11302D080932602C0FF05C080912602806180932E
S11302E026026091260287E0DCD076DF8091260228
S11302F08061809326028091260280628093260288
S11303008091260280648093260280912602806870
S1130310809326026091260287E0C3D0CF9108958E
S1130320CF93C82F4EDF60E08C2F5EDFCF9108950E
S1130330611103C08058F4CF08958054F1CF08951B
S113034081E0EECF0895882331F080912602877FE3
S11303508093260205C0809126028860809326023D
S11303606091260287E09DC0089582E0D9CF089568
S1130370CF93C82F26DFCA3041F4803410F080E0D8
S113038001C080E48058CCDF0FC0803121F460E0EC
S113039080EC2ADF05C0803519F460E080E824DFB2
S11303A010DF61E08C2F20DFCF910895CF93DF938E
S11303B0EC012196FC018081882321F0D9DF899109
S11303C08111FCCFDF91CF9108951F93CF93DF93D9
S11303D0182F40D0109226026091260287E061D047
S11303E080E09AEF0197F1F7909126029062909342
S11303F02602909126029061909326026091260233
S113040087E04FD0E9DEE0E0FEE43197F1F7E4DE87
S1130410C0E0D1E0FE013197F1F7DEDEFE01319755
S1130420F1F7909126029F7E909326026091260216
S113043087E037D0D1DE2197F1F788E271DF88E0D9
S11304406FDF7EDF86E06CDF812F6ADFDF91CF9183
S11304501F91089576D085E38A95F1F7000080E036
S113046090E0FC01E55DFD4F108201968830910516
S1130470C1F70895883088F4683088F4E82FF0E0F4
S1130480E55DFD4F8081082E000C990B02C0959507
S113049087956A95E2F7817008958FEF08958FEF3D
S11304A00895CF93883080F4C62F982FE82FF0E07A
S11304B0E55DFD4F608380E2890F880F48D08C2F63
S11304C076D06CD080E001C08FEFCF910895CF93A8
S11304D0DF93883050F5683050F5282F30E0F9016B
S11304E0E55DFD4F9081442349F0C1E0D0E002C0B6
S11304F0CC0FDD1F6A95E2F7C92B09C0C1E0D0E03B
S113050002C0CC0FDD1F6A95E2F7C095C923982F6E
S1130510F901E55DFD4FC08380E2890F880F17D094
S11305208C2F45D03BD080E003C08FEF01C08FEF0C
S1130530DF91CF91089541E0CACF089540E0C7CF3D
S113054008951092B90082E18093B800089594EA66
S11305509093BC00ECEBF0E090819923ECF7909140
S1130560B900987F983011F09031A1F48093BB00CA
S113057084E88093BC00ECEBF0E080818823ECF706
S11305809091B900987F983139F081E0903429F442
S113059080E0089581E0089580E0089584E98093DF
S11305A0BC00ECEBF0E0808184FDFDCF08958093E6
S11305B0BB0084E88093BC00ECEBF0E080818823EE
S11305C0ECF79091B900987F81E0983209F480E0CB
S11305D008958CE0FADEC9DE85E092E0E7DE80E093
S11305E0B2DE61E080E0A4DE85E192E0DFDE61E07E
S11305F085E09EDE89E192E0D9DE61E087E098DE65
S11306008BE192E0D3DE61E08EE092DE8FE192E056
S1130610CDCE0895189B10C080912802882399F0AC
S11306208091290290912A02019690932A02809344
S113063029021092280207C080912802811103C068
S113064081E0809328028091290290912A0281708E
S11306509078992324F401978E6F9F6F019680FD03
S1130660409A80FF409880FF0CC080910402882348
S113067009F440C069DD81E680937C001092040295
S1130680089580910402811130C080E680937C003B
S113069081E08093040229C081E090E090930302FA
S11306A0809302020895843638F483E090E09093B6
S11306B00302809302020895863938F485E090E0BD
S11306C090930302809302020895883C38F487E0F3
S11306D090E0909303028093020208958AE090E0F0
S11306E0909303028093020208958091270282333B
S11306F0D0F6D2CF089514B815B88FEF87B918B8CB
S113070078940895109280008DE080938100109277
S1130710820087E08093890081EA809388001092A8
S113072085001092840082E080936F000895E3DFD7
S113073050DF84D0F7DCE6DF07DD6CDFFECF1F92ED
S11307400F920FB60F9211240BB60F922F933F9373
S11307504F935F936F937F938F939F93AF93BF93C5
S1130760EF93FF9380917C008036A9F461E083E0ED
S1130770DFDD82E292E01ADE61E083E0D9DD4AE067
S113078063E372E080910202909103026ED083E3EE
S113079092E00CDE0EC061E08AE0CADD4AE063E369
S11307A072E080910002909101025FD083E392E0B5
S11307B0FDDDFF91EF91BF91AF919F918F917F915B
S11307C06F915F914F913F912F910F900BBE0F90BE
S11307D00FBE0F901F9018951F920F920FB60F9295
S11307E011240BB60F922F933F934F935F936F9304
S11307F07F938F939F93AF93BF93EF93FF938091D6
S11308007C00803629F4809179008093270203C00C
S11308108091790022D0FF91EF91BF91AF919F9188
S11308208F917F916F915F914F913F912F910F9095
S11308300BBE0F900FBE0F901F90189582E080930F
S1130840C00088E98093C10087E08093C2001092C1
S1130850C5008CE08093C4000895E0ECF0E0908142
S113086095FFFDCF8093C6000895BB274A3031F42D
S1130870992322F4BDE2909581959F4F01C0BB2737
S1130880FB015527AA27880F991FAA1FA41710F048
S1130890A41B83955051B9F7A05DAA3308F0A95D54
S11308A0A193009779F7B111B1931192CB0100C0D4
S11308B0DC01FC01672F71917723E1F7329704C0C3
S11308C07C916D9370836291AE17BF07C8F308954E
S10708D0F894FFCFC6
S11308D4E8030F00012A2A57656C636F6D65204F86
S11308E453432A2A0053523A006B0046513A006893
S10908F47A002020000040
S9030000FC
